:100000000C945E000C9486000C9486000C94860080
:100010000C9486000C9486000C9486000C94860048
:100020000C9486000C9486000C9486000C94860038
:100030000C9486000C9486000C9486000C94860028
:100040000C947C020C9486000C94EC020C94C60276
:100050000C9486000C9486000C9486000C94860008
:100060000C9486000C9486000000000024002700F9
:100070002A0000000000250028002B0004040404CE
:100080000404040402020202020203030303030342
:10009000010204081020408001020408102001021F
:1000A00004081020000000080002010000030407FB
:1000B00000000000000000001E03240511241FBEE4
:1000C000CFEFD8E0DEBFCDBF21E0AEE2B1E001C0AE
:1000D0001D92A03EB207E1F711E0A0E0B1E0EAE432
:1000E000FFE002C005900D92AE32B107D9F710E0E3
:1000F000CDE5D0E004C02197FE010E94A005CC35DB
:10010000D107C9F70E94A9030C9498070C9400002A
:1001100090E0FC01EC55FF4F2491FC01E057FF4FAC
:100120003491FC01E458FF4FE491EE23C9F02223FF
:1001300039F0233001F1A8F4213019F1223029F1EE
:10014000F0E0EE0FFF1FEE58FF4FA591B4918FB76F
:10015000F894EC91611126C030953E233C938FBFFB
:1001600008952730A9F02830C9F0243049F780914C
:1001700080008F7D03C0809180008F778093800006
:10018000DFCF84B58F7784BDDBCF84B58F7DFBCF88
:100190008091B0008F778093B000D2CF8091B00073
:1001A0008F7DF9CF3E2BDACF3FB7F89480913101A4
:1001B00090913201A0913301B091340126B5A89BF2
:1001C00005C02F3F19F00196A11DB11D3FBFBA2FE9
:1001D000A92F982F8827BC01CD01620F711D811DA9
:1001E000911D42E0660F771F881F991F4A95D1F72E
:1001F00008958F929F92AF92BF92CF92DF92EF922B
:10020000FF920E94D4004B015C0180EDC82E87E074
:10021000D82EE12CF12C0E94D400681979098A09A2
:100220009B09683E734081059105A8F321E0C21A3D
:10023000D108E108F10888EE880E83E0981EA11C21
:10024000B11CC114D104E104F10429F7FF90EF902F
:10025000DF90CF90BF90AF909F908F900895AF9216
:10026000BF92CF92DF92EF92FF920F931F93CF93A3
:10027000DF936C017B018B01040F151FEB015E0105
:10028000AE18BF08C017D10759F06991D601ED919A
:10029000FC910190F081E02DC6010995892B79F739
:1002A000C501DF91CF911F910F91FF90EF90DF90EB
:1002B000CF90BF90AF900895FC01538D448D252FB2
:1002C00030E0842F90E0821B930B541710F0CF96F0
:1002D000089501970895FC01918D828D981761F022
:1002E000A28DAE0FBF2FB11D5D968C91928D9F5F39
:1002F0009F73928F90E008958FEF9FEF0895FC0118
:10030000918D828D981731F0828DE80FF11D858DCA
:1003100090E008958FEF9FEF08952FB7F8948091A4
:10032000350190913601A0913701B09138012FBF6E
:100330008093410190934201A0934301B093440103
:1003400089E391E00E947F0197FF26C02FB7F894C0
:100350008091350190913601A0913701B09138011B
:100360002FBF409141015091420160914301709132
:100370004401841B950BA60BB70B40913D01509196
:100380003E0160913F017091400184179507A607D7
:10039000B707B0F28FEF9FEF0895FC01918D228D8A
:1003A000892F90E0805C9F4F821B91098F73992762
:1003B000089589E391E00E94CD0121E0892B09F4A1
:1003C00020E0822F089580E090E0892B29F00E94A0
:1003D000D90181110C9400000895FC01A48DA80F8F
:1003E000B92FB11DA35ABF4F2C91848D90E0019677
:1003F0008F739927848FA689B7892C93A089B18997
:100400008C91837080648C93938D848D981306C037
:100410000288F389E02D80818F7D80830895EF929B
:10042000FF920F931F93CF93DF93EC0181E0888FAE
:100430009B8D8C8D98131AC0E889F989808185FF7E
:1004400015C09FB7F894EE89FF896083E889F98920
:1004500080818370806480839FBF81E090E0DF9122
:10046000CF911F910F91FF90EF900895F62E0B8D75
:1004700010E00F5F1F4F0F731127E02E8C8D8E1130
:100480000CC00FB607FCFACFE889F989808185FF97
:10049000F5CFCE010E94ED01F1CFEB8DEC0FFD2FDA
:1004A000F11DE35AFF4FF0829FB7F8940B8FEA8952
:1004B000FB8980818062CFCFCF93DF93EC01888D61
:1004C0008823B9F0AA89BB89E889F9898C9185FDCF
:1004D00003C0808186FD0DC00FB607FCF7CF8C915D
:1004E00085FFF2CF808185FFEDCFCE010E94ED0127
:1004F000E9CFDF91CF9108951F920F920FB60F921F
:1005000011242F933F938F939F93AF93BF93809129
:10051000350190913601A0913701B09138013091A9
:10052000300123E0230F2D3758F50196A11DB11D91
:10053000209330018093350190933601A0933701C9
:10054000B09338018091310190913201A091330133
:10055000B09134010196A11DB11D8093310190939A
:100560003201A0933301B0933401BF91AF919F91B9
:100570008F913F912F910F900FBE0F901F90189564
:1005800026E8230F0296A11DB11DD2CF1F920F9214
:100590000FB60F9211242F933F934F935F936F9356
:1005A0007F938F939F93AF93BF93EF93FF9389E3D1
:1005B00091E00E94ED01FF91EF91BF91AF919F916A
:1005C0008F917F916F915F914F913F912F910F90FC
:1005D0000FBE0F901F9018951F920F920FB60F929B
:1005E00011242F938F939F93EF93FF93E0914901F1
:1005F000F0914A018081E0914F01F091500182FD1C
:100600001BC09081809152018F5F8F7320915301A5
:10061000821741F0E0915201F0E0E75CFE4F958FC8
:1006200080935201FF91EF919F918F912F910F90A5
:100630000FBE0F901F9018958081F4CF10923C014F
:1006400010923B0188EE93E0A0E0B0E080933D0182
:1006500090933E01A0933F01B09340018AE091E066
:1006600090933A018093390185EC90E09093460194
:100670008093450184EC90E090934801809347017A
:1006800080EC90E090934A018093490181EC90E0E6
:1006900090934C0180934B0182EC90E090934E013B
:1006A00080934D0186EC90E09093500180934F0130
:1006B0001092520110925301109254011092550160
:1006C0001092D7011092D6011092D9011092D80140
:1006D0001092DB011092DA0163E170E090E080E0BB
:1006E0000E94CB06009701F19093D7018093D60129
:1006F00022E130E03093D9012093D8012091DA0132
:100700003091DB01232B11F4FC01108282E190E097
:100710009093DB018093DA0168E171E08091D6016A
:100720009091D7010C9491078091D6019091D701B7
:10073000009711F00E9442061092D7011092D60144
:100740001092DB011092DA011092D9011092D801B7
:100750000895CF93DF93CDB7DEB7A1970FB6F89486
:10076000DEBF0FBECDBF789484B5826084BD84B5F2
:10077000816084BD85B5826085BD85B5816085BD9C
:1007800080916E00816080936E0010928100809154
:1007900081008260809381008091810081608093DC
:1007A0008100809180008160809380008091B10001
:1007B00084608093B1008091B00081608093B0002C
:1007C00080917A00846080937A0080917A008260C0
:1007D00080937A0080917A00816080937A00809182
:1007E0007A00806880937A001092C100E0914901FC
:1007F000F0914A0182E08083E0914501F091460149
:100800001082E0914701F09148018FEC80831092B3
:100810005101E0914D01F0914E0186E08083E0911D
:100820004B01F0914C01808180618083E0914B010C
:10083000F0914C01808188608083E0914B01F091C0
:100840004C01808180688083E0914B01F0914C01E4
:1008500080818F7D8083E8E9F0E02491E4E8F0E096
:100860008491882399F090E0880F991FFC01E85942
:10087000FF4FA591B491FC01EE58FF4F85919491E3
:100880008FB7F894EC91E22BEC938FBF8AE0882E1F
:10089000912CA12CB12C00E010E04091DA01509194
:1008A000DB016091D6017091D70189E391E00E944C
:1008B0002F0189E391E00E94CD01892BD1F30E94A1
:1008C0008D01FC0197FDA6C08D32910521F0C097E6
:1008D0000A9708F097C0C12CD12C7601712CE13019
:1008E000F105D9F0ED32F10509F491C0CF01C097BF
:1008F0000A9798F4AAE0B0E0A70196010E942D059E
:100900006F01FF0FEE08FF08C60ED71EE81EF91E86
:1009100080E3C81AD108E108F10889E391E00E9458
:100920006B010E948D01FC01C0970A97C0F2E13073
:10093000F105A9F2772041F0F094E094D094C094AE
:10094000C11CD11CE11CF11CD0922F01C0922E01C0
:100950000D2C000CEE08FF08F7FE60C06DE289E385
:1009600091E00E940F0222273327A9012C193D098B
:100970004E095F0919A2FE01B1967F01CA01B901B2
:10098000A50194010E947E05605DF70162937F01DD
:10099000211531054105510589F7E114F10461F094
:1009A00001900020E9F73197AF014E195F09B701B7
:1009B00089E391E00E942F0142E050E06BE271E098
:1009C00089E391E00E942F0180912E0190912F01E7
:1009D0000B9764F061E088E00E9488000E94F900B3
:1009E00060E088E00E9488000E94F900011511056E
:1009F00009F453CF0E94D901882309F44ECF0E94F5
:100A000000004BCF89E391E00E946B0158CF77241F
:100A1000739483CFC12CD12C760196CFA701960178
:100A200019A2CE0181967C01CA01B901A5019401E8
:100A30000E947E05605DF70162937F0121153105FB
:100A40004105510589F7A9CF8091D6019091D70131
:100A5000009711F00C94420608950E946F05A59F1F
:100A6000900DB49F900DA49F800D911D11240895A9
:100A70002F923F924F925F926F927F928F929F92AE
:100A8000AF92BF92CF92DF92EF92FF920F931F939C
:100A9000CF93DF93CDB7DEB7CA1BDB0B0FB6F8944D
:100AA000DEBF0FBECDBF09942A88398848885F848D
:100AB0006E847D848C849B84AA84B984C884DF80FE
:100AC000EE80FD800C811B81AA81B981CE0FD11DE2
:100AD0000FB6F894DEBF0FBECDBFED010895A29F03
:100AE000B001B39FC001A39F700D811D1124911D02
:100AF000B29F700D811D1124911D0895A1E21A2E3F
:100B0000AA1BBB1BFD010DC0AA1FBB1FEE1FFF1FB1
:100B1000A217B307E407F50720F0A21BB30BE40B01
:100B2000F50B661F771F881F991F1A9469F7609548
:100B30007095809590959B01AC01BD01CF01089502
:100B4000EE0FFF1F0590F491E02D09940F931F9372
:100B5000CF93DF938230910510F482E090E0E09132
:100B6000DE01F091DF0130E020E0B0E0A0E030975E
:100B700099F42115310509F44AC0281B390B24309A
:100B80003105D8F58A819B816115710589F1FB01D9
:100B900093838283FE0111C04081518102811381C0
:100BA00048175907E0F04817590799F4109761F072
:100BB00012960C93129713961C933296CF01DF91E5
:100BC000CF911F910F9108950093DE011093DF01E3
:100BD000F4CF2115310551F04217530738F0A90120
:100BE000DB019A01BD01DF01F801C1CFEF01F9CFAF
:100BF0009093DF018093DE01CDCFFE01E20FF31F62
:100C0000819391932250310939832883D7CF209142
:100C1000DC013091DD01232B41F420910201309160
:100C200003013093DD012093DC012091000130911C
:100C300001012115310541F42DB73EB74091040162
:100C400050910501241B350BE091DC01F091DD0191
:100C5000E217F307A0F42E1B3F0B2817390778F093
:100C6000AC014E5F5F4F2417350748F04E0F5F1FF2
:100C70005093DD014093DC01819391939FCFF0E08D
:100C8000E0E09CCFCF93DF930097E9F0FC0132972F
:100C900013821282A091DE01B091DF01ED0130E0FC
:100CA00020E01097A1F420813181820F931F2091C1
:100CB000DC013091DD012817390709F061C0F0939C
:100CC000DD01E093DC01DF91CF910895EA01CE17B9
:100CD000DF07E8F54A815B819E0141155105B1F7B7
:100CE000E901FB83EA8349915991C40FD51FEC17A1
:100CF000FD0761F4808191810296840F951FE901BF
:100D000099838883828193819B838A83F0E0E0E0EA
:100D100012968D919C9113970097B9F52D913C9166
:100D20001197CD010296820F931F2091DC01309123
:100D3000DD012817390739F6309751F51092DF0198
:100D40001092DE01B093DD01A093DC01BCCFD38310
:100D5000C28340815181840F951FC817D90761F460
:100D60004E5F5F4F88819981480F591F518340839F
:100D70008A819B81938382832115310509F0B0CF4D
:100D8000F093DF01E093DE019ECFFD01DC01C0CFD7
:100D900013821282D7CFB0E0A0E0E1EDF6E00C9430
:100DA0003A058C01009751F4CB010E94A6058C01F5
:100DB000C801CDB7DEB7E0E10C945605FC01E60FA3
:100DC000F71F9C0122503109E217F30708F49DC078
:100DD000D901CD91DC911197C617D70798F0C5308E
:100DE000D10530F3CE0104978617970708F3C61B89
:100DF000D70B2297C193D1936D937C93CF010E941F
:100E00004206D6CF5B01AC1ABD0A4C018C0E9D1E6A
:100E1000A091DE01B091DF01512C412CF12CE12C8D
:100E2000109731F58091DC019091DD0188159905CD
:100E300009F05CC04616570608F058C080910001C2
:100E400090910101009741F48DB79EB74091040144
:100E500050910501841B950BE817F90708F055C060
:100E6000F093DD01E093DC01F90171836083A0CF91
:100E70008D919C91119712966C90129713967C907D
:100E80001397A815B90559F56C0142E0C40ED11CA1
:100E9000CA14DB0420F1AC014A195B09DA0112968D
:100EA000159780F06282738251834083D9016D93DC
:100EB0007C93E114F10471F0D7011396FC93EE9347
:100EC000129776CF22968C0F9D1FF9019183808314
:100ED000F301EFCFF093DF01E093DE0169CF481615
:100EE000590608F42C017D01D3019ACFCB010E9451
:100EF000A6057C01009749F0AE01B8010E94880761
:100F0000C8010E944206870153CF10E000E050CF95
:100F1000FB01DC0102C001900D9241505040D8F716
:100F20000895FB01DC0101900D920020E1F7089586
:100F300010E0CDE5D0E004C0FE010E94A00521969E
:0A0F4000CE35D107C9F7F894FFCFB2
:100F4A000000E0018000000000000F022F015C0198
:100F5A005C02CD016B017F01456E74657220616E82
:0E0F6A0020696E74656765723A20000D0A00FA
:00000001FF
